ARM Linker, 5.03 [Build 76] [MDK-ARM Professional]

==============================================================================

Section Cross References

    startup_stm32f10x_hd.o(STACK) refers (Special) to heapauxi.o(.text) for __use_two_region_memory
    startup_stm32f10x_hd.o(HEAP) refers (Special) to heapauxi.o(.text) for __use_two_region_memory
    startup_stm32f10x_hd.o(RESET) refers (Special) to heapauxi.o(.text) for __use_two_region_memory
    startup_stm32f10x_hd.o(RESET) refers to startup_stm32f10x_hd.o(STACK) for __initial_sp
    startup_stm32f10x_hd.o(RESET) refers to startup_stm32f10x_hd.o(.text) for Reset_Handler
    startup_stm32f10x_hd.o(RESET) refers to os_cpu_a.o(.text) for PendSV_Handler
    startup_stm32f10x_hd.o(RESET) refers to main.o(.text) for SysTick_Handler
    startup_stm32f10x_hd.o(.text) refers (Special) to heapauxi.o(.text) for __use_two_region_memory
    startup_stm32f10x_hd.o(.text) refers to system_stm32f10x.o(.text) for SystemInit
    startup_stm32f10x_hd.o(.text) refers to __main.o(!!!main) for __main
    startup_stm32f10x_hd.o(.text) refers to startup_stm32f10x_hd.o(HEAP) for Heap_Mem
    startup_stm32f10x_hd.o(.text) refers to startup_stm32f10x_hd.o(STACK) for Stack_Mem
    main.o(.text) refers to psb_init.o(.text) for Init_All_Periph
    main.o(.text) refers to gb_sysmana.o(.text) for RLGBOSInit
    main.o(.text) refers to os_cpu_a.o(.text) for OS_ENTER_CRITICAL
    main.o(.text) refers to gb_home.o(.text) for Homewin_Creat
    main.o(.text) refers to os_core.o(.text) for OSStart
    main.o(.text) refers to os_core.o(.data) for OSIntNesting
==============================================================================

Removing Unused input sections from the image.

    Removing core_cm3.o(.emb_text), (32 bytes).
    Removing stm32f10x_adc.o(.text), (1102 bytes).
    Removing stm32f10x_bkp.o(.text), (196 bytes).
    Removing stm32f10x_can.o(.text), (1998 bytes).
    Removing stm32f10x_crc.o(.text), (72 bytes).
    Removing stm32f10x_dac.o(.text), (396 bytes).
    Removing stm32f10x_dbgmcu.o(.text), (48 bytes).
    Removing stm32f10x_dma.o(.text), (584 bytes).
    Removing stm32f10x_flash.o(.text), (1332 bytes).
    Removing stm32f10x_fsmc.o(.text), (1552 bytes).
    Removing stm32f10x_i2c.o(.text), (996 bytes).
    Removing stm32f10x_iwdg.o(.text), (64 bytes).
    Removing stm32f10x_pwr.o(.text), (192 bytes).
    Removing stm32f10x_rtc.o(.text), (324 bytes).
    Removing stm32f10x_sdio.o(.text), (472 bytes).
    Removing stm32f10x_tim.o(.text), (2966 bytes).
    Removing stm32f10x_usart.o(.text), (932 bytes).
    Removing stm32f10x_wwdg.o(.text), (136 bytes).
==============================================================================

Image Symbol Table

    Local Symbols

    Symbol Name                              Value     Ov Type        Size  Object(Section)

    ../clib/angel/boardlib.s                 0x00000000   Number         0  boardshut.o ABSOLUTE
    ../clib/angel/boardlib.s                 0x00000000   Number         0  boardinit1.o ABSOLUTE
    ../clib/angel/boardlib.s                 0x00000000   Number         0  boardinit2.o ABSOLUTE
    ../clib/angel/boardlib.s                 0x00000000   Number         0  boardinit3.o ABSOLUTE
    ../clib/angel/handlers.s                 0x00000000   Number         0  __scatter_zi.o ABSOLUTE
    ../clib/angel/handlers.s                 0x00000000   Number         0  __scatter_copy.o ABSOLUTE
    ../clib/angel/kernel.s                   0x00000000   Number         0  rtexit2.o ABSOLUTE
    ../clib/angel/kernel.s                   0x00000000   Number         0  __rtentry4.o ABSOLUTE
    ../clib/angel/kernel.s                   0x00000000   Number         0  __rtentry2.o ABSOLUTE
    ../clib/angel/kernel.s                   0x00000000   Number         0  __rtentry.o ABSOLUTE
    ../clib/angel/kernel.s                   0x00000000   Number         0  rtexit.o ABSOLUTE
    ../clib/angel/rt.s                       0x00000000   Number         0  rt_raise.o ABSOLUTE
    ../clib/angel/rt.s                       0x00000000   Number         0  rt_heap_descriptor.o ABSOLUTE
    ../clib/angel/rt.s                       0x00000000   Number         0  rt_heap_descriptor_intlibspace.o ABSOLUTE
    ../clib/angel/scatter.s                  0x00000000   Number         0  __scatter.o ABSOLUTE
    ../clib/angel/startup.s                  0x00000000   Number         0  __main.o ABSOLUTE
    ../clib/angel/sys.s                      0x00000000   Number         0  libspace.o ABSOLUTE
    ../clib/angel/sys.s                      0x00000000   Number         0  mutex_dummy.o ABSOLUTE
    ../clib/angel/sys.s                      0x00000000   Number         0  sys_stackheap_outer.o ABSOLUTE
    ../clib/angel/sys.s                      0x00000000   Number         0  indicate_semi.o ABSOLUTE
    ../clib/angel/sys.s                      0x00000000   Number         0  use_no_semi.o ABSOLUTE
    ../clib/angel/sysapp.c                   0x00000000   Number         0  sys_exit.o ABSOLUTE
    ../clib/angel/sysapp.c                   0x00000000   Number         0  sys_wrch.o ABSOLUTE
    ../clib/angel/sysapp.c                   0x00000000   Number         0  sys_command.o ABSOLUTE
    ../clib/armsys.c                         0x00000000   Number         0  _get_argv.o ABSOLUTE
    ../clib/armsys.c                         0x00000000   Number         0  no_argv.o ABSOLUTE
    ../clib/armsys.c                         0x00000000   Number         0  _get_argv_nomalloc.o ABSOLUTE
    ../clib/armsys.c                         0x00000000   Number         0  argv_veneer.o ABSOLUTE
    ../clib/armsys.c                         0x00000000   Number         0  argv_veneer.o ABSOLUTE
    ../clib/heap1.c                          0x00000000   Number         0  h1_free.o ABSOLUTE
    ../clib/heap1.c                          0x00000000   Number         0  h1_alloc_mt.o ABSOLUTE
    ../clib/heap1.c                          0x00000000   Number         0  h1_free_mt.o ABSOLUTE
    ../clib/heap1.c                          0x00000000   Number         0  h1_final.o ABSOLUTE
    ../clib/heap1.c                          0x00000000   Number         0  h1_init_mt.o ABSOLUTE
    ../clib/heap1.c                          0x00000000   Number         0  h1_extend.o ABSOLUTE
    ../clib/heap1.c                          0x00000000   Number         0  h1_init.o ABSOLUTE
    ../clib/heap1.c                          0x00000000   Number         0  h1_extend_mt.o ABSOLUTE
    ../clib/heap1.c                          0x00000000   Number         0  h1_final_mt.o ABSOLUTE
    ../clib/heap1.c                          0x00000000   Number         0  h1_alloc.o ABSOLUTE
    ../clib/heap2.c                          0x00000000   Number         0  heap2.o ABSOLUTE
    ../clib/heap2.c                          0x00000000   Number         0  fdtree.o ABSOLUTE
    ../clib/heap2.c                          0x00000000   Number         0  heap2mt.o ABSOLUTE
    ../clib/heapalloc.c                      0x00000000   Number         0  hrguard.o ABSOLUTE
    ../clib/heapalloc.c                      0x00000000   Number         0  maybetermalloc1.o ABSOLUTE
    ../clib/heapalloc.c                      0x00000000   Number         0  maybetermalloc1.o ABSOLUTE
    ../clib/heapalloc.c                      0x00000000   Number         0  maybetermalloc2.o ABSOLUTE
    ../clib/heapalloc.c                      0x00000000   Number         0  maybetermalloc2.o ABSOLUTE
    ../clib/heapalloc.c                      0x00000000   Number         0  heapstubs.o ABSOLUTE
    ../clib/heapalloc.c                      0x00000000   Number         0  term_alloc.o ABSOLUTE
    ../clib/heapalloc.c                      0x00000000   Number         0  hguard.o ABSOLUTE
    ../clib/heapalloc.c                      0x00000000   Number         0  init_alloc.o ABSOLUTE
    ../clib/heapalloc.c                      0x00000000   Number         0  malloc.o ABSOLUTE
    ../clib/heapalloc.c                      0x00000000   Number         0  free.o ABSOLUTE
    ../clib/heapaux.c                        0x00000000   Number         0  heapauxi.o ABSOLUTE
    ../clib/heapaux.c                        0x00000000   Number         0  heapauxa.o ABSOLUTE
    ../clib/libinit.s                        0x00000000   Number         0  libinit2.o ABSOLUTE
    ../clib/libinit.s                        0x00000000   Number         0  libshutdown2.o ABSOLUTE
    ../clib/libinit.s                        0x00000000   Number         0  libinit.o ABSOLUTE
    ../clib/libinit.s                        0x00000000   Number         0  libshutdown.o ABSOLUTE
    ../clib/memcpset.s                       0x00000000   Number         0  rt_memcpy_w.o ABSOLUTE
    ../clib/memcpset.s                       0x00000000   Number         0  rt_memclr_w.o ABSOLUTE
    ../clib/signal.c                         0x00000000   Number         0  defsig_stak_inner.o ABSOLUTE
    ../clib/signal.c                         0x00000000   Number         0  defsig_fpe_inner.o ABSOLUTE
    ../clib/signal.c                         0x00000000   Number         0  defsig_abrt_inner.o ABSOLUTE
    ../clib/signal.c                         0x00000000   Number         0  defsig_general.o ABSOLUTE
    ../clib/signal.c                         0x00000000   Number         0  __raise.o ABSOLUTE
    ../clib/signal.c                         0x00000000   Number         0  defsig_rtred_inner.o ABSOLUTE
    ../clib/signal.c                         0x00000000   Number         0  defsig_rtmem_inner.o ABSOLUTE
    ../clib/signal.c                         0x00000000   Number         0  defsig_exit.o ABSOLUTE
    ../clib/signal.c                         0x00000000   Number         0  defsig_rtmem_formal.o ABSOLUTE
    ../clib/signal.c                         0x00000000   Number         0  defsig_rtmem_outer.o ABSOLUTE
    ../clib/signal.c                         0x00000000   Number         0  defsig_other.o ABSOLUTE
    ../clib/signal.c                         0x00000000   Number         0  defsig_segv_inner.o ABSOLUTE
    ../clib/signal.c                         0x00000000   Number         0  defsig_cppl_inner.o ABSOLUTE
    ../clib/signal.c                         0x00000000   Number         0  defsig_pvfn_inner.o ABSOLUTE
    ../clib/signal.s                         0x00000000   Number         0  defsig.o ABSOLUTE
    ../clib/stdlib.c                         0x00000000   Number         0  rand.o ABSOLUTE
    ../clib/stdlib.c                         0x00000000   Number         0  rand.o ABSOLUTE
    ../clib/stdlib.c                         0x00000000   Number         0  exit.o ABSOLUTE
    ../fplib/fpinit.s                        0x00000000   Number         0  fpinit.o ABSOLUTE
    ..\gui\2.0\qbOledPW_core.c               0x00000000   Number         0  qboledpw_core.o ABSOLUTE
    LIB\CMSISV1.2.0\Core\CM3\core_cm3.c      0x00000000   Number         0  core_cm3.o ABSOLUTE
    LIB\CMSISV1.2.0\Core\CM3\system_stm32f10x.c 0x00000000   Number         0  system_stm32f10x.o ABSOLUTE
    LIB\\CMSISV1.2.0\\Core\\CM3\\core_cm3.c  0x00000000   Number         0  core_cm3.o ABSOLUTE
    LIB\src\misc.c                           0x00000000   Number         0  misc.o ABSOLUTE
    LIB\src\stm32f10x_adc.c                  0x00000000   Number         0  stm32f10x_adc.o ABSOLUTE
    LIB\src\stm32f10x_bkp.c                  0x00000000   Number         0  stm32f10x_bkp.o ABSOLUTE
    LIB\src\stm32f10x_can.c                  0x00000000   Number         0  stm32f10x_can.o ABSOLUTE
    LIB\src\stm32f10x_crc.c                  0x00000000   Number         0  stm32f10x_crc.o ABSOLUTE
    LIB\src\stm32f10x_dac.c                  0x00000000   Number         0  stm32f10x_dac.o ABSOLUTE
    LIB\src\stm32f10x_dbgmcu.c               0x00000000   Number         0  stm32f10x_dbgmcu.o ABSOLUTE
    LIB\src\stm32f10x_dma.c                  0x00000000   Number         0  stm32f10x_dma.o ABSOLUTE
    LIB\src\stm32f10x_exti.c                 0x00000000   Number         0  stm32f10x_exti.o ABSOLUTE
    LIB\src\stm32f10x_flash.c                0x00000000   Number         0  stm32f10x_flash.o ABSOLUTE
    LIB\src\stm32f10x_fsmc.c                 0x00000000   Number         0  stm32f10x_fsmc.o ABSOLUTE
    LIB\src\stm32f10x_gpio.c                 0x00000000   Number         0  stm32f10x_gpio.o ABSOLUTE
    LIB\src\stm32f10x_i2c.c                  0x00000000   Number         0  stm32f10x_i2c.o ABSOLUTE
    LIB\src\stm32f10x_iwdg.c                 0x00000000   Number         0  stm32f10x_iwdg.o ABSOLUTE
    LIB\src\stm32f10x_pwr.c                  0x00000000   Number         0  stm32f10x_pwr.o ABSOLUTE
    LIB\src\stm32f10x_rcc.c                  0x00000000   Number         0  stm32f10x_rcc.o ABSOLUTE
    LIB\src\stm32f10x_rtc.c                  0x00000000   Number         0  stm32f10x_rtc.o ABSOLUTE
    LIB\src\stm32f10x_sdio.c                 0x00000000   Number         0  stm32f10x_sdio.o ABSOLUTE
    LIB\src\stm32f10x_spi.c                  0x00000000   Number         0  stm32f10x_spi.o ABSOLUTE
    LIB\src\stm32f10x_tim.c                  0x00000000   Number         0  stm32f10x_tim.o ABSOLUTE
    LIB\src\stm32f10x_usart.c                0x00000000   Number         0  stm32f10x_usart.o ABSOLUTE
    LIB\src\stm32f10x_wwdg.c                 0x00000000   Number         0  stm32f10x_wwdg.o ABSOLUTE
    RLGB\GB_HOME.c                           0x00000000   Number         0  gb_home.o ABSOLUTE
    RLGB\GB_INPUT.c                          0x00000000   Number         0  gb_input.o ABSOLUTE
    RLGB\GB_MEM.c                            0x00000000   Number         0  gb_mem.o ABSOLUTE
    RLGB\GB_MES.c                            0x00000000   Number         0  gb_mes.o ABSOLUTE
    RLGB\GB_MONI.c                           0x00000000   Number         0  gb_moni.o ABSOLUTE
    RLGB\GB_SEM.c                            0x00000000   Number         0  gb_sem.o ABSOLUTE
    RLGB\GB_SYSMANA.c                        0x00000000   Number         0  gb_sysmana.o ABSOLUTE
    RLGB\GB_SYSTIM.c                         0x00000000   Number         0  gb_systim.o ABSOLUTE
    RLGB\GB_TIMDEL.c                         0x00000000   Number         0  gb_timdel.o ABSOLUTE
    RLGB\GB_WIN.c                            0x00000000   Number         0  gb_win.o ABSOLUTE
    RLGB\butt_DR.c                           0x00000000   Number         0  butt_dr.o ABSOLUTE
    RLGB\driver.c                            0x00000000   Number         0  driver.o ABSOLUTE
    UCOSII\CORE\OS_CORE.C                    0x00000000   Number         0  os_core.o ABSOLUTE
    UCOSII\CORE\OS_TASK.C                    0x00000000   Number         0  os_task.o ABSOLUTE
    UCOSII\CORE\OS_TIME.C                    0x00000000   Number         0  os_time.o ABSOLUTE
    UCOSII\PORT\os_cpu_a.asm                 0x00000000   Number         0  os_cpu_a.o ABSOLUTE
    UCOSII\PORT\os_cpu_c.c                   0x00000000   Number         0  os_cpu_c.o ABSOLUTE
    dc.s                                     0x00000000   Number         0  dc.o ABSOLUTE
    object\OLED_window.c                     0x00000000   Number         0  oled_window.o ABSOLUTE
    object\PCB\Button.c                      0x00000000   Number         0  button.o ABSOLUTE
    object\PCB\LED.c                         0x00000000   Number         0  led.o ABSOLUTE
    object\PCB\SPI.c                         0x00000000   Number         0  spi.o ABSOLUTE
    object\PCB\SysTickDelay.c                0x00000000   Number         0  systickdelay.o ABSOLUTE
    object\PCB\oled.c                        0x00000000   Number         0  oled.o ABSOLUTE
    object\PSB_Init.c                        0x00000000   Number         0  psb_init.o ABSOLUTE
    object\game\flybird.c                    0x00000000   Number         0  flybird.o ABSOLUTE
    object\main.c                            0x00000000   Number         0  main.o ABSOLUTE
    startup_stm32f10x_hd.s                   0x00000000   Number         0  startup_stm32f10x_hd.o ABSOLUTE
    RESET                                    0x08000000   Section      304  startup_stm32f10x_hd.o(RESET)
    !!!main                                  0x08000130   Section        8  __main.o(!!!main)
    !!!scatter                               0x08000138   Section       52  __scatter.o(!!!scatter)
    !!handler_copy                           0x0800016c   Section       26  __scatter_copy.o(!!handler_copy)
    !!handler_zi                             0x08000188   Section       28  __scatter_zi.o(!!handler_zi)
    .ARM.Collect$$libinit$$00000000          0x080001a4   Section        2  libinit.o(.ARM.Collect$$libinit$$00000000)
    .ARM.Collect$$libinit$$00000002          0x080001a6   Section        0  libinit2.o(.ARM.Collect$$libinit$$00000002)
    .ARM.Collect$$libinit$$00000004          0x080001a6   Section        0  libinit2.o(.ARM.Collect$$libinit$$00000004)
    .ARM.Collect$$libinit$$00000005          0x080001a6   Section        8  libinit2.o(.ARM.Collect$$libinit$$00000005)
    .ARM.Collect$$libinit$$0000000A          0x080001ae   Section        0  libinit2.o(.ARM.Collect$$libinit$$0000000A)
    .ARM.Collect$$libinit$$0000000C          0x080001ae   Section        0  libinit2.o(.ARM.Collect$$libinit$$0000000C)
    .ARM.Collect$$libinit$$0000000D          0x080001ae   Section        4  libinit2.o(.ARM.Collect$$libinit$$0000000D)
    .ARM.Collect$$libinit$$0000000E          0x080001b2   Section        0  libinit2.o(.ARM.Collect$$libinit$$0000000E)
    .ARM.Collect$$libinit$$00000011          0x080001b2   Section        0  libinit2.o(.ARM.Collect$$libinit$$00000011)
    .ARM.Collect$$libinit$$00000013          0x080001b2   Section        0  libinit2.o(.ARM.Collect$$libinit$$00000013)
    .ARM.Collect$$libinit$$00000015          0x080001b2   Section        0  libinit2.o(.ARM.Collect$$libinit$$00000015)
    .ARM.Collect$$libinit$$00000017          0x080001b2   Section        0  libinit2.o(.ARM.Collect$$libinit$$00000017)
    .ARM.Collect$$libinit$$00000019          0x080001b2   Section        0  libinit2.o(.ARM.Collect$$libinit$$00000019)
    .ARM.Collect$$libinit$$0000001B          0x080001b2   Section        0  libinit2.o(.ARM.Collect$$libinit$$0000001B)
    .ARM.Collect$$libinit$$0000001D          0x080001b2   Section        0  libinit2.o(.ARM.Collect$$libinit$$0000001D)
    .ARM.Collect$$libinit$$0000001F          0x080001b2   Section        0  libinit2.o(.ARM.Collect$$libinit$$0000001F)
    .ARM.Collect$$libinit$$00000021          0x080001b2   Section        0  libinit2.o(.ARM.Collect$$libinit$$00000021)
    .ARM.Collect$$libinit$$00000023          0x080001b2   Section        0  libinit2.o(.ARM.Collect$$libinit$$00000023)
    .ARM.Collect$$libinit$$00000025          0x080001b2   Section        0  libinit2.o(.ARM.Collect$$libinit$$00000025)
    .ARM.Collect$$libinit$$0000002C          0x080001b2   Section        0  libinit2.o(.ARM.Collect$$libinit$$0000002C)
    .ARM.Collect$$libinit$$0000002E          0x080001b2   Section        0  libinit2.o(.ARM.Collect$$libinit$$0000002E)
    .ARM.Collect$$libinit$$00000030          0x080001b2   Section        0  libinit2.o(.ARM.Collect$$libinit$$00000030)
    .ARM.Collect$$libinit$$00000032          0x080001b2   Section        0  libinit2.o(.ARM.Collect$$libinit$$00000032)
    .ARM.Collect$$libinit$$00000033          0x080001b2   Section        2  libinit2.o(.ARM.Collect$$libinit$$00000033)
    .ARM.Collect$$libshutdown$$00000000      0x080001b4   Section        2  libshutdown.o(.ARM.Collect$$libshutdown$$00000000)
    .ARM.Collect$$libshutdown$$00000003      0x080001b6   Section        0  libshutdown2.o(.ARM.Collect$$libshutdown$$00000003)
    .ARM.Collect$$libshutdown$$00000006      0x080001b6   Section        0  libshutdown2.o(.ARM.Collect$$libshutdown$$00000006)
    .ARM.Collect$$libshutdown$$00000009      0x080001b6   Section        0  libshutdown2.o(.ARM.Collect$$libshutdown$$00000009)
    .ARM.Collect$$libshutdown$$0000000B      0x080001b6   Section        0  libshutdown2.o(.ARM.Collect$$libshutdown$$0000000B)
    .ARM.Collect$$libshutdown$$0000000E      0x080001b6   Section        0  libshutdown2.o(.ARM.Collect$$libshutdown$$0000000E)
    .ARM.Collect$$libshutdown$$0000000F      0x080001b6   Section        2  libshutdown2.o(.ARM.Collect$$libshutdown$$0000000F)
    .ARM.Collect$$rtentry$$00000000          0x080001b8   Section        0  __rtentry.o(.ARM.Collect$$rtentry$$00000000)
    .ARM.Collect$$rtentry$$00000002          0x080001b8   Section        0  __rtentry2.o(.ARM.Collect$$rtentry$$00000002)
    .ARM.Collect$$rtentry$$00000004          0x080001b8   Section        6  __rtentry4.o(.ARM.Collect$$rtentry$$00000004)
    .ARM.Collect$$rtentry$$00000009          0x080001be   Section        0  __rtentry2.o(.ARM.Collect$$rtentry$$00000009)
    .ARM.Collect$$rtentry$$0000000A          0x080001be   Section        4  __rtentry2.o(.ARM.Collect$$rtentry$$0000000A)
    .ARM.Collect$$rtentry$$0000000C          0x080001c2   Section        0  __rtentry2.o(.ARM.Collect$$rtentry$$0000000C)
    .ARM.Collect$$rtentry$$0000000D          0x080001c2   Section        8  __rtentry2.o(.ARM.Collect$$rtentry$$0000000D)
    .ARM.Collect$$rtexit$$00000000           0x080001ca   Section        2  rtexit.o(.ARM.Collect$$rtexit$$00000000)
    .ARM.Collect$$rtexit$$00000002           0x080001cc   Section        0  rtexit2.o(.ARM.Collect$$rtexit$$00000002)
    .ARM.Collect$$rtexit$$00000003           0x080001cc   Section        4  rtexit2.o(.ARM.Collect$$rtexit$$00000003)
    .ARM.Collect$$rtexit$$00000004           0x080001d0   Section        6  rtexit2.o(.ARM.Collect$$rtexit$$00000004)
    .emb_text                                0x080001d8   Section       52  rand.o(.emb_text)
    .emb_text                                0x0800020c   Section        0  maybetermalloc1.o(.emb_text)
    .text                                    0x0800020c   Section       64  startup_stm32f10x_hd.o(.text)
    .text                                    0x0800024c   Section        0  main.o(.text)
    .text                                    0x0800028c   Section        0  system_stm32f10x.o(.text)
    SetSysClockTo72                          0x0800028d   Thumb Code   218  system_stm32f10x.o(.text)
    SetSysClock                              0x08000367   Thumb Code     8  system_stm32f10x.o(.text)
    .text                                    0x080003c4   Section        0  systickdelay.o(.text)
    .text                                    0x08000488   Section        0  misc.o(.text)
    .text                                    0x08000564   Section        0  stm32f10x_exti.o(.text)
    .text                                    0x08000680   Section        0  stm32f10x_gpio.o(.text)
    .text                                    0x080009b8   Section        0  stm32f10x_rcc.o(.text)
    .text                                    0x08000d5c   Section        0  stm32f10x_spi.o(.text)
    .text                                    0x08001068   Section        0  led.o(.text)
    .text                                    0x080010e4   Section        0  oled.o(.text)
    .text                                    0x08001628   Section        0  spi.o(.text)
    .text                                    0x080017f0   Section        0  button.o(.text)
    .text                                    0x080018d0   Section        0  psb_init.o(.text)
    .text                                    0x08001948   Section        0  oled_window.o(.text)
    .text                                    0x08001c50   Section        0  flybird.o(.text)
    .text                                    0x080025dc   Section        0  os_core.o(.text)
    OS_InitTaskIdle                          0x080025f9   Thumb Code    44  os_core.o(.text)
    OS_InitTCBList                           0x08002625   Thumb Code    64  os_core.o(.text)
    OS_InitRdyList                           0x08002665   Thumb Code    46  os_core.o(.text)
    OS_InitMisc                              0x08002693   Thumb Code    44  os_core.o(.text)
    OS_InitTaskStat                          0x080028d9   Thumb Code    44  os_core.o(.text)
    .text                                    0x08002ab0   Section        0  os_task.o(.text)
    .text                                    0x08002d08   Section        0  os_time.o(.text)
    .text                                    0x08002e2c   Section      220  os_cpu_a.o(.text)
    .text                                    0x08002f08   Section        0  os_cpu_c.o(.text)
    .text                                    0x08002fbc   Section        0  gb_mes.o(.text)
    .text                                    0x08002fec   Section        0  gb_moni.o(.text)
    .text                                    0x08003014   Section        0  gb_systim.o(.text)
    .text                                    0x08003100   Section        0  gb_win.o(.text)
    .text                                    0x080032d4   Section        0  gb_sysmana.o(.text)
    .text                                    0x08003300   Section        0  gb_mem.o(.text)
    .text                                    0x0800338c   Section        0  gb_home.o(.text)
    .text                                    0x080035e0   Section        0  butt_dr.o(.text)
    .text                                    0x080036a0   Section        0  driver.o(.text)
    .text                                    0x080036bc   Section        0  qboledpw_core.o(.text)
    .text                                    0x0800375c   Section        0  h1_alloc.o(.text)
    .text                                    0x080037ba   Section        0  h1_free.o(.text)
    .text                                    0x08003808   Section        0  rand.o(.text)
    .text                                    0x08003844   Section       78  rt_memclr_w.o(.text)
    .text                                    0x08003892   Section        0  heapauxi.o(.text)
    .text                                    0x08003898   Section        8  rt_heap_descriptor_intlibspace.o(.text)
    .text                                    0x080038a0   Section        0  hguard.o(.text)
    .text                                    0x080038a4   Section        0  init_alloc.o(.text)
    .text                                    0x0800392e   Section        0  h1_init.o(.text)
    .text                                    0x0800393c   Section        8  libspace.o(.text)
    .text                                    0x08003944   Section        0  h1_extend.o(.text)
    .text                                    0x08003978   Section        0  defsig_rtmem_outer.o(.text)
    .text                                    0x08003986   Section        2  use_no_semi.o(.text)
    .text                                    0x08003988   Section        0  indicate_semi.o(.text)
    .text                                    0x08003988   Section       74  sys_stackheap_outer.o(.text)
    .text                                    0x080039d2   Section        0  exit.o(.text)
    .text                                    0x080039de   Section        0  defsig_exit.o(.text)
    .text                                    0x080039e8   Section        0  defsig_rtmem_inner.o(.text)
    .text                                    0x08003a38   Section        0  sys_exit.o(.text)
    .text                                    0x08003a44   Section        0  defsig_general.o(.text)
    .text                                    0x08003a76   Section        0  sys_wrch.o(.text)
    .constdata                               0x08003a84   Section       20  system_stm32f10x.o(.constdata)
    .constdata                               0x08003a98   Section       12  led.o(.constdata)
    .constdata                               0x08003aa4   Section     3172  oled.o(.constdata)
    .constdata                               0x08004708   Section       44  button.o(.constdata)
    .constdata                               0x08004734   Section      264  os_core.o(.constdata)
    .conststring                             0x0800483c   Section       14  gb_home.o(.conststring)
    .data                                    0x20000000   Section        4  systickdelay.o(.data)
    fac_us                                   0x20000000   Data           1  systickdelay.o(.data)
    fac_ms                                   0x20000002   Data           2  systickdelay.o(.data)
    .data                                    0x20000004   Section       20  stm32f10x_rcc.o(.data)
    APBAHBPrescTable                         0x20000004   Data          16  stm32f10x_rcc.o(.data)
    ADCPrescTable                            0x20000014   Data           4  stm32f10x_rcc.o(.data)
    .data                                    0x20000018   Section        8  led.o(.data)
    .data                                    0x20000020   Section       12  button.o(.data)
    .data                                    0x2000002c   Section        3  oled_window.o(.data)
    .data                                    0x20000030   Section       52  os_core.o(.data)
    .data                                    0x20000064   Section        4  os_cpu_c.o(.data)
    .data                                    0x20000068   Section        1  gb_mes.o(.data)
    .data                                    0x20000069   Section       13  gb_systim.o(.data)
    .data                                    0x20000078   Section        8  gb_win.o(.data)
    .data                                    0x20000080   Section        2  gb_mem.o(.data)
    .data                                    0x20000084   Section       56  gb_home.o(.data)
    .data                                    0x200000bc   Section        3  butt_dr.o(.data)
    .bss                                     0x200000c0   Section     1024  oled.o(.bss)
    .bss                                     0x200004c0   Section      192  oled_window.o(.bss)
    .bss                                     0x20000580   Section     4668  os_core.o(.bss)
    .bss                                     0x200017bc   Section       64  gb_win.o(.bss)
    .bss                                     0x200017fc   Section      512  gb_mem.o(.bss)
    .bss                                     0x200019fc   Section     1044  gb_home.o(.bss)
    .bss                                     0x20001e10   Section       12  butt_dr.o(.bss)
    .bss                                     0x20001e1c   Section       12  driver.o(.bss)
    .bss                                     0x20001e28   Section      228  rand.o(.bss)
    .bss                                     0x20001f0c   Section       96  libspace.o(.bss)
    HEAP                                     0x20001f70   Section      512  startup_stm32f10x_hd.o(HEAP)
    Heap_Mem                                 0x20001f70   Data         512  startup_stm32f10x_hd.o(HEAP)
    STACK                                    0x20002170   Section     1024  startup_stm32f10x_hd.o(STACK)
    Stack_Mem                                0x20002170   Data        1024  startup_stm32f10x_hd.o(STACK)
    __initial_sp                             0x20002570   Data           0  startup_stm32f10x_hd.o(STACK)

    Global Symbols

    Symbol Name                              Value     Ov Type        Size  Object(Section)

    BuildAttributes$$THM_ISAv4$P$D$K$B$S$PE$A:L22UL41UL21$X:L11$S22US41US21$IEEE1$IW$USESV6$~STKCKD$USESV7$~SHL$OTIME$ROPI$EBA8$UX$STANDARDLIB$REQ8$PRES8$EABIv2 0x00000000   Number         0  anon$$obj.o ABSOLUTE
    __ARM_use_no_argv                        0x00000000   Number         0  main.o ABSOLUTE
    __ARM_exceptions_init                     - Undefined Weak Reference
    __alloca_initialize                       - Undefined Weak Reference
    __arm_preinit_                            - Undefined Weak Reference
    __cpp_initialize__aeabi_                  - Undefined Weak Reference
    __cxa_finalize                            - Undefined Weak Reference
    __rt_locale                               - Undefined Weak Reference
    __sigvec_lookup                           - Undefined Weak Reference
    __user_heap_extent                        - Undefined Weak Reference
    _atexit_init                              - Undefined Weak Reference
    _call_atexit_fns                          - Undefined Weak Reference
    _clock_init                               - Undefined Weak Reference
    _fp_trap_init                             - Undefined Weak Reference
    _fp_trap_shutdown                         - Undefined Weak Reference
    _get_lc_collate                           - Undefined Weak Reference
    _get_lc_ctype                             - Undefined Weak Reference
    _get_lc_monetary                          - Undefined Weak Reference
    _get_lc_numeric                           - Undefined Weak Reference
    _get_lc_time                              - Undefined Weak Reference
    _getenv_init                              - Undefined Weak Reference
    _handle_redirection                       - Undefined Weak Reference
    _initio                                   - Undefined Weak Reference
    _mutex_acquire                            - Undefined Weak Reference
    _mutex_free                               - Undefined Weak Reference
    _mutex_release                            - Undefined Weak Reference
    _signal_finish                            - Undefined Weak Reference
    _signal_init                              - Undefined Weak Reference
    _terminateio                              - Undefined Weak Reference
    __Vectors_Size                           0x00000130   Number         0  startup_stm32f10x_hd.o ABSOLUTE
    __Vectors                                0x08000000   Data           4  startup_stm32f10x_hd.o(RESET)
    __Vectors_End                            0x08000130   Data           0  startup_stm32f10x_hd.o(RESET)
    __main                                   0x08000131   Thumb Code     8  __main.o(!!!main)
    __scatterload                            0x08000139   Thumb Code     0  __scatter.o(!!!scatter)
    __scatterload_rt2                        0x08000139   Thumb Code    44  __scatter.o(!!!scatter)
    __scatterload_rt2_thumb_only             0x08000139   Thumb Code     0  __scatter.o(!!!scatter)
    __scatterload_null                       0x08000147   Thumb Code     0  __scatter.o(!!!scatter)
    __scatterload_copy                       0x0800016d   Thumb Code    26  __scatter_copy.o(!!handler_copy)
    __scatterload_zeroinit                   0x08000189   Thumb Code    28  __scatter_zi.o(!!handler_zi)
    __rt_lib_init                            0x080001a5   Thumb Code     0  libinit.o(.ARM.Collect$$libinit$$00000000)
    __rt_lib_init_fp_1                       0x080001a7   Thumb Code     0  libinit2.o(.ARM.Collect$$libinit$$00000002)
    __rt_lib_init_heap_2                     0x080001a7   Thumb Code     0  libinit2.o(.ARM.Collect$$libinit$$00000005)
    __rt_lib_init_preinit_1                  0x080001a7   Thumb Code     0  libinit2.o(.ARM.Collect$$libinit$$00000004)
    __rt_lib_init_heap_1                     0x080001af   Thumb Code     0  libinit2.o(.ARM.Collect$$libinit$$0000000A)
    __rt_lib_init_rand_2                     0x080001af   Thumb Code     0  libinit2.o(.ARM.Collect$$libinit$$0000000D)
    __rt_lib_init_user_alloc_1               0x080001af   Thumb Code     0  libinit2.o(.ARM.Collect$$libinit$$0000000C)
    __rt_lib_init_alloca_1                   0x080001b3   Thumb Code     0  libinit2.o(.ARM.Collect$$libinit$$0000002E)
    __rt_lib_init_argv_1                     0x080001b3   Thumb Code     0  libinit2.o(.ARM.Collect$$libinit$$0000002C)
    __rt_lib_init_atexit_1                   0x080001b3   Thumb Code     0  libinit2.o(.ARM.Collect$$libinit$$0000001B)
    __rt_lib_init_clock_1                    0x080001b3   Thumb Code     0  libinit2.o(.ARM.Collect$$libinit$$00000021)
    __rt_lib_init_cpp_1                      0x080001b3   Thumb Code     0  libinit2.o(.ARM.Collect$$libinit$$00000032)
    __rt_lib_init_exceptions_1               0x080001b3   Thumb Code     0  libinit2.o(.ARM.Collect$$libinit$$00000030)
    __rt_lib_init_fp_trap_1                  0x080001b3   Thumb Code     0  libinit2.o(.ARM.Collect$$libinit$$0000001F)
    __rt_lib_init_getenv_1                   0x080001b3   Thumb Code     0  libinit2.o(.ARM.Collect$$libinit$$00000023)
    __rt_lib_init_lc_collate_1               0x080001b3   Thumb Code     0  libinit2.o(.ARM.Collect$$libinit$$00000011)
    __rt_lib_init_lc_ctype_1                 0x080001b3   Thumb Code     0  libinit2.o(.ARM.Collect$$libinit$$00000013)
    __rt_lib_init_lc_monetary_1              0x080001b3   Thumb Code     0  libinit2.o(.ARM.Collect$$libinit$$00000015)
    __rt_lib_init_lc_numeric_1               0x080001b3   Thumb Code     0  libinit2.o(.ARM.Collect$$libinit$$00000017)
    __rt_lib_init_lc_time_1                  0x080001b3   Thumb Code     0  libinit2.o(.ARM.Collect$$libinit$$00000019)
    __rt_lib_init_rand_1                     0x080001b3   Thumb Code     0  libinit2.o(.ARM.Collect$$libinit$$0000000E)
    __rt_lib_init_return                     0x080001b3   Thumb Code     0  libinit2.o(.ARM.Collect$$libinit$$00000033)
    __rt_lib_init_signal_1                   0x080001b3   Thumb Code     0  libinit2.o(.ARM.Collect$$libinit$$0000001D)
    __rt_lib_init_stdio_1                    0x080001b3   Thumb Code     0  libinit2.o(.ARM.Collect$$libinit$$00000025)
    __rt_lib_shutdown                        0x080001b5   Thumb Code     0  libshutdown.o(.ARM.Collect$$libshutdown$$00000000)
    __rt_lib_shutdown_fp_trap_1              0x080001b7   Thumb Code     0  libshutdown2.o(.ARM.Collect$$libshutdown$$00000006)
    __rt_lib_shutdown_heap_1                 0x080001b7   Thumb Code     0  libshutdown2.o(.ARM.Collect$$libshutdown$$0000000E)
    __rt_lib_shutdown_return                 0x080001b7   Thumb Code     0  libshutdown2.o(.ARM.Collect$$libshutdown$$0000000F)
    __rt_lib_shutdown_signal_1               0x080001b7   Thumb Code     0  libshutdown2.o(.ARM.Collect$$libshutdown$$00000009)
    __rt_lib_shutdown_stdio_1                0x080001b7   Thumb Code     0  libshutdown2.o(.ARM.Collect$$libshutdown$$00000003)
    __rt_lib_shutdown_user_alloc_1           0x080001b7   Thumb Code     0  libshutdown2.o(.ARM.Collect$$libshutdown$$0000000B)
    __rt_entry                               0x080001b9   Thumb Code     0  __rtentry.o(.ARM.Collect$$rtentry$$00000000)
    __rt_entry_presh_1                       0x080001b9   Thumb Code     0  __rtentry2.o(.ARM.Collect$$rtentry$$00000002)
    __rt_entry_sh                            0x080001b9   Thumb Code     0  __rtentry4.o(.ARM.Collect$$rtentry$$00000004)
    __rt_entry_li                            0x080001bf   Thumb Code     0  __rtentry2.o(.ARM.Collect$$rtentry$$0000000A)
    __rt_entry_postsh_1                      0x080001bf   Thumb Code     0  __rtentry2.o(.ARM.Collect$$rtentry$$00000009)
    __rt_entry_main                          0x080001c3   Thumb Code     0  __rtentry2.o(.ARM.Collect$$rtentry$$0000000D)
    __rt_entry_postli_1                      0x080001c3   Thumb Code     0  __rtentry2.o(.ARM.Collect$$rtentry$$0000000C)
    __rt_exit                                0x080001cb   Thumb Code     0  rtexit.o(.ARM.Collect$$rtexit$$00000000)
    __rt_exit_ls                             0x080001cd   Thumb Code     0  rtexit2.o(.ARM.Collect$$rtexit$$00000003)
    __rt_exit_prels_1                        0x080001cd   Thumb Code     0  rtexit2.o(.ARM.Collect$$rtexit$$00000002)
    __rt_exit_exit                           0x080001d1   Thumb Code     0  rtexit2.o(.ARM.Collect$$rtexit$$00000004)
    rand                                     0x080001d9   Thumb Code    48  rand.o(.emb_text)
    Reset_Handler                            0x0800020d   Thumb Code     8  startup_stm32f10x_hd.o(.text)
    _maybe_terminate_alloc                   0x0800020d   Thumb Code     0  maybetermalloc1.o(.emb_text)
    NMI_Handler                              0x08000215   Thumb Code     2  startup_stm32f10x_hd.o(.text)
    HardFault_Handler                        0x08000217   Thumb Code     2  startup_stm32f10x_hd.o(.text)
    MemManage_Handler                        0x08000219   Thumb Code     2  startup_stm32f10x_hd.o(.text)
    BusFault_Handler                         0x0800021b   Thumb Code     2  startup_stm32f10x_hd.o(.text)
    UsageFault_Handler                       0x0800021d   Thumb Code     2  startup_stm32f10x_hd.o(.text)
    SVC_Handler                              0x0800021f   Thumb Code     2  startup_stm32f10x_hd.o(.text)
    DebugMon_Handler                         0x08000221   Thumb Code     2  startup_stm32f10x_hd.o(.text)
    ADC1_2_IRQHandler                        0x08000227   Thumb Code     0  startup_stm32f10x_hd.o(.text)
    ADC3_IRQHandler                          0x08000227   Thumb Code     0  startup_stm32f10x_hd.o(.text)
    CAN1_RX1_IRQHandler                      0x08000227   Thumb Code     0  startup_stm32f10x_hd.o(.text)
    CAN1_SCE_IRQHandler                      0x08000227   Thumb Code     0  startup_stm32f10x_hd.o(.text)
    DMA1_Channel1_IRQHandler                 0x08000227   Thumb Code     0  startup_stm32f10x_hd.o(.text)
    DMA1_Channel2_IRQHandler                 0x08000227   Thumb Code     0  startup_stm32f10x_hd.o(.text)
    DMA1_Channel3_IRQHandler                 0x08000227   Thumb Code     0  startup_stm32f10x_hd.o(.text)
    DMA1_Channel4_IRQHandler                 0x08000227   Thumb Code     0  startup_stm32f10x_hd.o(.text)
    DMA1_Channel5_IRQHandler                 0x08000227   Thumb Code     0  startup_stm32f10x_hd.o(.text)
    DMA1_Channel6_IRQHandler                 0x08000227   Thumb Code     0  startup_stm32f10x_hd.o(.text)
    DMA1_Channel7_IRQHandler                 0x08000227   Thumb Code     0  startup_stm32f10x_hd.o(.text)
    DMA2_Channel1_IRQHandler                 0x08000227   Thumb Code     0  startup_stm32f10x_hd.o(.text)
    DMA2_Channel2_IRQHandler                 0x08000227   Thumb Code     0  startup_stm32f10x_hd.o(.text)
    DMA2_Channel3_IRQHandler                 0x08000227   Thumb Code     0  startup_stm32f10x_hd.o(.text)
    DMA2_Channel4_5_IRQHandler               0x08000227   Thumb Code     0  startup_stm32f10x_hd.o(.text)
    EXTI0_IRQHandler                         0x08000227   Thumb Code     0  startup_stm32f10x_hd.o(.text)
    EXTI15_10_IRQHandler                     0x08000227   Thumb Code     0  startup_stm32f10x_hd.o(.text)
    EXTI1_IRQHandler                         0x08000227   Thumb Code     0  startup_stm32f10x_hd.o(.text)
    EXTI2_IRQHandler                         0x08000227   Thumb Code     0  startup_stm32f10x_hd.o(.text)
    EXTI3_IRQHandler                         0x08000227   Thumb Code     0  startup_stm32f10x_hd.o(.text)
    EXTI4_IRQHandler                         0x08000227   Thumb Code     0  startup_stm32f10x_hd.o(.text)
    EXTI9_5_IRQHandler                       0x08000227   Thumb Code     0  startup_stm32f10x_hd.o(.text)
    FLASH_IRQHandler                         0x08000227   Thumb Code     0  startup_stm32f10x_hd.o(.text)
    FSMC_IRQHandler                          0x08000227   Thumb Code     0  startup_stm32f10x_hd.o(.text)
    I2C1_ER_IRQHandler                       0x08000227   Thumb Code     0  startup_stm32f10x_hd.o(.text)
    I2C1_EV_IRQHandler                       0x08000227   Thumb Code     0  startup_stm32f10x_hd.o(.text)
    I2C2_ER_IRQHandler                       0x08000227   Thumb Code     0  startup_stm32f10x_hd.o(.text)
    I2C2_EV_IRQHandler                       0x08000227   Thumb Code     0  startup_stm32f10x_hd.o(.text)
    PVD_IRQHandler                           0x08000227   Thumb Code     0  startup_stm32f10x_hd.o(.text)
    RCC_IRQHandler                           0x08000227   Thumb Code     0  startup_stm32f10x_hd.o(.text)
    RTCAlarm_IRQHandler                      0x08000227   Thumb Code     0  startup_stm32f10x_hd.o(.text)
    RTC_IRQHandler                           0x08000227   Thumb Code     0  startup_stm32f10x_hd.o(.text)
    SDIO_IRQHandler                          0x08000227   Thumb Code     0  startup_stm32f10x_hd.o(.text)
    SPI1_IRQHandler                          0x08000227   Thumb Code     0  startup_stm32f10x_hd.o(.text)
    SPI2_IRQHandler                          0x08000227   Thumb Code     0  startup_stm32f10x_hd.o(.text)
    SPI3_IRQHandler                          0x08000227   Thumb Code     0  startup_stm32f10x_hd.o(.text)
    TAMPER_IRQHandler                        0x08000227   Thumb Code     0  startup_stm32f10x_hd.o(.text)
    TIM1_BRK_IRQHandler                      0x08000227   Thumb Code     0  startup_stm32f10x_hd.o(.text)
    TIM1_CC_IRQHandler                       0x08000227   Thumb Code     0  startup_stm32f10x_hd.o(.text)
    TIM1_TRG_COM_IRQHandler                  0x08000227   Thumb Code     0  startup_stm32f10x_hd.o(.text)
    TIM1_UP_IRQHandler                       0x08000227   Thumb Code     0  startup_stm32f10x_hd.o(.text)
    TIM2_IRQHandler                          0x08000227   Thumb Code     0  startup_stm32f10x_hd.o(.text)
    TIM3_IRQHandler                          0x08000227   Thumb Code     0  startup_stm32f10x_hd.o(.text)
    TIM4_IRQHandler                          0x08000227   Thumb Code     0  startup_stm32f10x_hd.o(.text)
    TIM5_IRQHandler                          0x08000227   Thumb Code     0  startup_stm32f10x_hd.o(.text)
    TIM6_IRQHandler                          0x08000227   Thumb Code     0  startup_stm32f10x_hd.o(.text)
    TIM7_IRQHandler                          0x08000227   Thumb Code     0  startup_stm32f10x_hd.o(.text)
    TIM8_BRK_IRQHandler                      0x08000227   Thumb Code     0  startup_stm32f10x_hd.o(.text)
    TIM8_CC_IRQHandler                       0x08000227   Thumb Code     0  startup_stm32f10x_hd.o(.text)
    TIM8_TRG_COM_IRQHandler                  0x08000227   Thumb Code     0  startup_stm32f10x_hd.o(.text)
    TIM8_UP_IRQHandler                       0x08000227   Thumb Code     0  startup_stm32f10x_hd.o(.text)
    UART4_IRQHandler                         0x08000227   Thumb Code     0  startup_stm32f10x_hd.o(.text)
    UART5_IRQHandler                         0x08000227   Thumb Code     0  startup_stm32f10x_hd.o(.text)
    USART1_IRQHandler                        0x08000227   Thumb Code     0  startup_stm32f10x_hd.o(.text)
    USART2_IRQHandler                        0x08000227   Thumb Code     0  startup_stm32f10x_hd.o(.text)
    USART3_IRQHandler                        0x08000227   Thumb Code     0  startup_stm32f10x_hd.o(.text)
    USBWakeUp_IRQHandler                     0x08000227   Thumb Code     0  startup_stm32f10x_hd.o(.text)
    USB_HP_CAN1_TX_IRQHandler                0x08000227   Thumb Code     0  startup_stm32f10x_hd.o(.text)
    USB_LP_CAN1_RX0_IRQHandler               0x08000227   Thumb Code     0  startup_stm32f10x_hd.o(.text)
    WWDG_IRQHandler                          0x08000227   Thumb Code     0  startup_stm32f10x_hd.o(.text)
    __user_initial_stackheap                 0x08000229   Thumb Code     0  startup_stm32f10x_hd.o(.text)
    main                                     0x0800024d   Thumb Code    30  main.o(.text)
    SysTick_Handler                          0x0800026b   Thumb Code    30  main.o(.text)
    SystemInit                               0x0800036f   Thumb Code    70  system_stm32f10x.o(.text)
    SysTick_Initaize                         0x080003c5   Thumb Code    60  systickdelay.o(.text)
    delay_ms                                 0x08000401   Thumb Code    64  systickdelay.o(.text)
    delay_us                                 0x08000441   Thumb Code    54  systickdelay.o(.text)
    NVIC_PriorityGroupConfig                 0x08000489   Thumb Code    10  misc.o(.text)
    NVIC_Init                                0x08000493   Thumb Code   102  misc.o(.text)
    NVIC_SetVectorTable                      0x080004f9   Thumb Code    14  misc.o(.text)
    NVIC_SystemLPConfig                      0x08000507   Thumb Code    34  misc.o(.text)
    SysTick_CLKSourceConfig                  0x08000529   Thumb Code    40  misc.o(.text)
    EXTI_DeInit                              0x08000565   Thumb Code    28  stm32f10x_exti.o(.text)
    EXTI_Init                                0x08000581   Thumb Code   142  stm32f10x_exti.o(.text)
    EXTI_StructInit                          0x0800060f   Thumb Code    16  stm32f10x_exti.o(.text)
    EXTI_GenerateSWInterrupt                 0x0800061f   Thumb Code    16  stm32f10x_exti.o(.text)
    EXTI_GetFlagStatus                       0x0800062f   Thumb Code    22  stm32f10x_exti.o(.text)
    EXTI_ClearFlag                           0x08000645   Thumb Code     8  stm32f10x_exti.o(.text)
    EXTI_GetITStatus                         0x0800064d   Thumb Code    34  stm32f10x_exti.o(.text)
    EXTI_ClearITPendingBit                   0x0800066f   Thumb Code     8  stm32f10x_exti.o(.text)
    GPIO_DeInit                              0x08000681   Thumb Code   172  stm32f10x_gpio.o(.text)
    GPIO_AFIODeInit                          0x0800072d   Thumb Code    20  stm32f10x_gpio.o(.text)
    GPIO_Init                                0x08000741   Thumb Code   274  stm32f10x_gpio.o(.text)
    GPIO_StructInit                          0x08000853   Thumb Code    16  stm32f10x_gpio.o(.text)
    GPIO_ReadInputDataBit                    0x08000863   Thumb Code    18  stm32f10x_gpio.o(.text)
    GPIO_ReadInputData                       0x08000875   Thumb Code     8  stm32f10x_gpio.o(.text)
    GPIO_ReadOutputDataBit                   0x0800087d   Thumb Code    18  stm32f10x_gpio.o(.text)
    GPIO_ReadOutputData                      0x0800088f   Thumb Code     8  stm32f10x_gpio.o(.text)
    GPIO_SetBits                             0x08000897   Thumb Code     4  stm32f10x_gpio.o(.text)
    GPIO_ResetBits                           0x0800089b   Thumb Code     4  stm32f10x_gpio.o(.text)
    GPIO_WriteBit                            0x0800089f   Thumb Code    10  stm32f10x_gpio.o(.text)
    GPIO_Write                               0x080008a9   Thumb Code     4  stm32f10x_gpio.o(.text)
    GPIO_PinLockConfig                       0x080008ad   Thumb Code    18  stm32f10x_gpio.o(.text)
    GPIO_EventOutputConfig                   0x080008bf   Thumb Code    26  stm32f10x_gpio.o(.text)
    GPIO_EventOutputCmd                      0x080008d9   Thumb Code     6  stm32f10x_gpio.o(.text)
    GPIO_PinRemapConfig                      0x080008df   Thumb Code   106  stm32f10x_gpio.o(.text)
    GPIO_EXTILineConfig                      0x08000949   Thumb Code    66  stm32f10x_gpio.o(.text)
    GPIO_ETH_MediaInterfaceConfig            0x0800098b   Thumb Code     6  stm32f10x_gpio.o(.text)
    RCC_DeInit                               0x080009b9   Thumb Code    64  stm32f10x_rcc.o(.text)
    RCC_HSEConfig                            0x080009f9   Thumb Code    70  stm32f10x_rcc.o(.text)
    RCC_GetFlagStatus                        0x08000a3f   Thumb Code    56  stm32f10x_rcc.o(.text)
    RCC_WaitForHSEStartUp                    0x08000a77   Thumb Code    56  stm32f10x_rcc.o(.text)
    RCC_AdjustHSICalibrationValue            0x08000aaf   Thumb Code    20  stm32f10x_rcc.o(.text)
    RCC_HSICmd                               0x08000ac3   Thumb Code     6  stm32f10x_rcc.o(.text)
    RCC_PLLConfig                            0x08000ac9   Thumb Code    24  stm32f10x_rcc.o(.text)
    RCC_PLLCmd                               0x08000ae1   Thumb Code     6  stm32f10x_rcc.o(.text)
    RCC_SYSCLKConfig                         0x08000ae7   Thumb Code    18  stm32f10x_rcc.o(.text)
    RCC_GetSYSCLKSource                      0x08000af9   Thumb Code    10  stm32f10x_rcc.o(.text)
    RCC_HCLKConfig                           0x08000b03   Thumb Code    18  stm32f10x_rcc.o(.text)
    RCC_PCLK1Config                          0x08000b15   Thumb Code    18  stm32f10x_rcc.o(.text)
    RCC_PCLK2Config                          0x08000b27   Thumb Code    20  stm32f10x_rcc.o(.text)
    RCC_ITConfig                             0x08000b3b   Thumb Code    26  stm32f10x_rcc.o(.text)
    RCC_USBCLKConfig                         0x08000b55   Thumb Code     6  stm32f10x_rcc.o(.text)
    RCC_ADCCLKConfig                         0x08000b5b   Thumb Code    18  stm32f10x_rcc.o(.text)
    RCC_LSEConfig                            0x08000b6d   Thumb Code    44  stm32f10x_rcc.o(.text)
    RCC_LSICmd                               0x08000b99   Thumb Code     6  stm32f10x_rcc.o(.text)
    RCC_RTCCLKConfig                         0x08000b9f   Thumb Code    12  stm32f10x_rcc.o(.text)
    RCC_RTCCLKCmd                            0x08000bab   Thumb Code     8  stm32f10x_rcc.o(.text)
    RCC_GetClocksFreq                        0x08000bb3   Thumb Code   192  stm32f10x_rcc.o(.text)
    RCC_AHBPeriphClockCmd                    0x08000c73   Thumb Code    26  stm32f10x_rcc.o(.text)
    RCC_APB2PeriphClockCmd                   0x08000c8d   Thumb Code    26  stm32f10x_rcc.o(.text)
    RCC_APB1PeriphClockCmd                   0x08000ca7   Thumb Code    26  stm32f10x_rcc.o(.text)
    RCC_APB2PeriphResetCmd                   0x08000cc1   Thumb Code    26  stm32f10x_rcc.o(.text)
    RCC_APB1PeriphResetCmd                   0x08000cdb   Thumb Code    26  stm32f10x_rcc.o(.text)
    RCC_BackupResetCmd                       0x08000cf5   Thumb Code     8  stm32f10x_rcc.o(.text)
    RCC_ClockSecuritySystemCmd               0x08000cfd   Thumb Code     6  stm32f10x_rcc.o(.text)
    RCC_MCOConfig                            0x08000d03   Thumb Code     6  stm32f10x_rcc.o(.text)
    RCC_ClearFlag                            0x08000d09   Thumb Code    14  stm32f10x_rcc.o(.text)
    RCC_GetITStatus                          0x08000d17   Thumb Code    20  stm32f10x_rcc.o(.text)
    RCC_ClearITPendingBit                    0x08000d2b   Thumb Code     6  stm32f10x_rcc.o(.text)
    SPI_I2S_DeInit                           0x08000d5d   Thumb Code    76  stm32f10x_spi.o(.text)
    SPI_Init                                 0x08000da9   Thumb Code    60  stm32f10x_spi.o(.text)
    I2S_Init                                 0x08000de5   Thumb Code   226  stm32f10x_spi.o(.text)
    SPI_StructInit                           0x08000ec7   Thumb Code    24  stm32f10x_spi.o(.text)
    I2S_StructInit                           0x08000edf   Thumb Code    20  stm32f10x_spi.o(.text)
    SPI_Cmd                                  0x08000ef3   Thumb Code    24  stm32f10x_spi.o(.text)
    I2S_Cmd                                  0x08000f0b   Thumb Code    24  stm32f10x_spi.o(.text)
    SPI_I2S_ITConfig                         0x08000f23   Thumb Code    32  stm32f10x_spi.o(.text)
    SPI_I2S_DMACmd                           0x08000f43   Thumb Code    18  stm32f10x_spi.o(.text)
    SPI_I2S_SendData                         0x08000f55   Thumb Code     4  stm32f10x_spi.o(.text)
    SPI_I2S_ReceiveData                      0x08000f59   Thumb Code     6  stm32f10x_spi.o(.text)
    SPI_NSSInternalSoftwareConfig            0x08000f5f   Thumb Code    30  stm32f10x_spi.o(.text)
    SPI_SSOutputCmd                          0x08000f7d   Thumb Code    24  stm32f10x_spi.o(.text)
    SPI_DataSizeConfig                       0x08000f95   Thumb Code    18  stm32f10x_spi.o(.text)
    SPI_TransmitCRC                          0x08000fa7   Thumb Code    10  stm32f10x_spi.o(.text)
    SPI_CalculateCRC                         0x08000fb1   Thumb Code    24  stm32f10x_spi.o(.text)
    SPI_GetCRC                               0x08000fc9   Thumb Code    16  stm32f10x_spi.o(.text)
    SPI_GetCRCPolynomial                     0x08000fd9   Thumb Code     6  stm32f10x_spi.o(.text)
    SPI_BiDirectionalLineConfig              0x08000fdf   Thumb Code    28  stm32f10x_spi.o(.text)
    SPI_I2S_GetFlagStatus                    0x08000ffb   Thumb Code    18  stm32f10x_spi.o(.text)
    SPI_I2S_ClearFlag                        0x0800100d   Thumb Code     6  stm32f10x_spi.o(.text)
    SPI_I2S_GetITStatus                      0x08001013   Thumb Code    52  stm32f10x_spi.o(.text)
    SPI_I2S_ClearITPendingBit                0x08001047   Thumb Code    20  stm32f10x_spi.o(.text)
    STM_EVAL_LEDInit                         0x08001069   Thumb Code    52  led.o(.text)
    STM_EVAL_LEDOn                           0x0800109d   Thumb Code    16  led.o(.text)
    STM_EVAL_LEDOff                          0x080010ad   Thumb Code    16  led.o(.text)
    STM_EVAL_LEDToggle                       0x080010bd   Thumb Code    26  led.o(.text)
    OLED_WR_Byte                             0x080010e5   Thumb Code    62  oled.o(.text)
    OLED_Refresh_Gram                        0x08001123   Thumb Code    70  oled.o(.text)
    OLED_Display_On                          0x08001169   Thumb Code    28  oled.o(.text)
    OLED_Display_Off                         0x08001185   Thumb Code    28  oled.o(.text)
    OLED_Clear                               0x080011a1   Thumb Code    42  oled.o(.text)
    LCD_Set_Pos                              0x080011cb   Thumb Code    52  oled.o(.text)
    OLED_DrawPoint                           0x080011ff   Thumb Code   140  oled.o(.text)
    OLED_Fill                                0x0800128b   Thumb Code    58  oled.o(.text)
    OLED_ShowChar                            0x080012c5   Thumb Code   158  oled.o(.text)
    OLED_ShowCHinese                         0x08001363   Thumb Code   132  oled.o(.text)
    oled_pow                                 0x080013e7   Thumb Code    22  oled.o(.text)
    OLED_ShowNum                             0x080013fd   Thumb Code   148  oled.o(.text)
    OLED_ShowString                          0x08001491   Thumb Code    92  oled.o(.text)
    OLED_ShowString_Mode                     0x080014ed   Thumb Code    68  oled.o(.text)
    OLED_Init                                0x08001531   Thumb Code   242  oled.o(.text)
    SPI1_Init                                0x08001629   Thumb Code   140  spi.o(.text)
    SPI2_Init                                0x080016b5   Thumb Code   160  spi.o(.text)
    SPI1_ReadWriteByte                       0x08001755   Thumb Code    66  spi.o(.text)
    SPI2_ReadWriteByte                       0x08001797   Thumb Code    74  spi.o(.text)
    STM_EVAL_PBInit                          0x080017f1   Thumb Code   174  button.o(.text)
    STM_EVAL_PBGetState                      0x0800189f   Thumb Code    22  button.o(.text)
    SysTick_Configuration                    0x080018d1   Thumb Code    44  psb_init.o(.text)
    NVIC_Configuration                       0x080018fd   Thumb Code    12  psb_init.o(.text)
    RCC_Configuration                        0x08001909   Thumb Code     8  psb_init.o(.text)
    Init_All_Periph                          0x08001911   Thumb Code    56  psb_init.o(.text)
    Icon_Positon_Change                      0x08001949   Thumb Code    42  oled_window.o(.text)
    Select_Positon_Change                    0x08001973   Thumb Code    40  oled_window.o(.text)
    Icon_Position                            0x0800199b   Thumb Code    34  oled_window.o(.text)
    Window_Icon_Add                          0x080019bd   Thumb Code   108  oled_window.o(.text)
    Window_Home_Point                        0x08001a29   Thumb Code    98  oled_window.o(.text)
    Window_Bar                               0x08001a8b   Thumb Code    74  oled_window.o(.text)
    Window_Icon_DIS                          0x08001ad5   Thumb Code   186  oled_window.o(.text)
    Point_Select                             0x08001b8f   Thumb Code    70  oled_window.o(.text)
    Point_Select_Ok                          0x08001bd5   Thumb Code    42  oled_window.o(.text)
    Window_Home_DIS                          0x08001bff   Thumb Code    14  oled_window.o(.text)
    time_fre                                 0x08001c0d   Thumb Code    18  oled_window.o(.text)
    win_mini                                 0x08001c1f   Thumb Code    34  oled_window.o(.text)
    CreatBird                                0x08001c51   Thumb Code    14  flybird.o(.text)
    CreatBg                                  0x08001c5f   Thumb Code    54  flybird.o(.text)
    InsertBg                                 0x08001c95   Thumb Code   138  flybird.o(.text)
    Check_Bg                                 0x08001d1f   Thumb Code   156  flybird.o(.text)
    Loop_Bg                                  0x08001dbb   Thumb Code    72  flybird.o(.text)
    Prt_Bg                                   0x08001e03   Thumb Code  1438  flybird.o(.text)
    PrtBird                                  0x080023a1   Thumb Code   112  flybird.o(.text)
    CheckYN                                  0x08002411   Thumb Code   168  flybird.o(.text)
    Game_start                               0x080024b9   Thumb Code   286  flybird.o(.text)
    OS_TaskIdle                              0x080025dd   Thumb Code    28  os_core.o(.text)
    OSInit                                   0x080026bf   Thumb Code    20  os_core.o(.text)
    OSIntEnter                               0x080026d3   Thumb Code    28  os_core.o(.text)
    OSIntExit                                0x080026ef   Thumb Code   124  os_core.o(.text)
    OSStart                                  0x0800276b   Thumb Code    68  os_core.o(.text)
    OSStatInit                               0x080027af   Thumb Code    54  os_core.o(.text)
    OSTimeTick                               0x080027e5   Thumb Code   124  os_core.o(.text)
    OS_Dummy                                 0x08002861   Thumb Code     2  os_core.o(.text)
    OS_TaskStat                              0x08002863   Thumb Code   118  os_core.o(.text)
    OS_Sched                                 0x08002905   Thumb Code    88  os_core.o(.text)
    OS_TCBInit                               0x0800295d   Thumb Code   326  os_core.o(.text)
    OSTaskCreate                             0x08002ab1   Thumb Code   146  os_task.o(.text)
    OSTaskDel                                0x08002b43   Thumb Code   236  os_task.o(.text)
    OSTaskCreateExt                          0x08002c2f   Thumb Code   176  os_task.o(.text)
    OSTimeDly                                0x08002d09   Thumb Code    82  os_time.o(.text)
    OSTimeGet                                0x08002d5b   Thumb Code    18  os_time.o(.text)
    OSTimeSet                                0x08002d6d   Thumb Code    18  os_time.o(.text)
    OSTimeDlyHMSM                            0x08002d7f   Thumb Code   158  os_time.o(.text)
    OS_ENTER_CRITICAL                        0x08002e2d   Thumb Code     0  os_cpu_a.o(.text)
    OS_EXIT_CRITICAL                         0x08002e3f   Thumb Code     0  os_cpu_a.o(.text)
    OSStartHighRdy                           0x08002e59   Thumb Code     0  os_cpu_a.o(.text)
    OSCtxSw                                  0x08002e7b   Thumb Code     0  os_cpu_a.o(.text)
    OSIntCtxSw                               0x08002e89   Thumb Code     0  os_cpu_a.o(.text)
    PendSV_Handler                           0x08002e99   Thumb Code     0  os_cpu_a.o(.text)
    ItDisAll                                 0x08002edb   Thumb Code     0  os_cpu_a.o(.text)
    OSTaskStkInit                            0x08002f09   Thumb Code   154  os_cpu_c.o(.text)
    OSInitHookBegin                          0x08002fa3   Thumb Code     2  os_cpu_c.o(.text)
    OSInitHookEnd                            0x08002fa5   Thumb Code     2  os_cpu_c.o(.text)
    OSTaskCreateHook                         0x08002fa7   Thumb Code     4  os_cpu_c.o(.text)
    OSTaskDelHook                            0x08002fab   Thumb Code     4  os_cpu_c.o(.text)
    OSTaskSwHook                             0x08002faf   Thumb Code     2  os_cpu_c.o(.text)
    OSTaskStatHook                           0x08002fb1   Thumb Code     2  os_cpu_c.o(.text)
    OSTCBInitHook                            0x08002fb3   Thumb Code     4  os_cpu_c.o(.text)
    OSTimeTickHook                           0x08002fb7   Thumb Code     2  os_cpu_c.o(.text)
    OSTaskIdleHook                           0x08002fb9   Thumb Code     2  os_cpu_c.o(.text)
    set_message                              0x08002fbd   Thumb Code    12  gb_mes.o(.text)
    get_is_message                           0x08002fc9   Thumb Code    30  gb_mes.o(.text)
    monitor_build                            0x08002fed   Thumb Code    36  gb_moni.o(.text)
    TimeCorrect                              0x08003015   Thumb Code    56  gb_systim.o(.text)
    TimeBuild                                0x0800304d   Thumb Code    22  gb_systim.o(.text)
    GetSysTime                               0x08003063   Thumb Code    30  gb_systim.o(.text)
    SetSysTime                               0x08003081   Thumb Code    28  gb_systim.o(.text)
    GetTime_counter                          0x0800309d   Thumb Code     6  gb_systim.o(.text)
    TimeSwiStr                               0x080030a3   Thumb Code    80  gb_systim.o(.text)
    mini_win_fre                             0x08003101   Thumb Code    12  gb_win.o(.text)
    fre_winndow                              0x0800310d   Thumb Code    24  gb_win.o(.text)
    set_window_pro                           0x08003125   Thumb Code    16  gb_win.o(.text)
    Getwin_byPid                             0x08003135   Thumb Code    24  gb_win.o(.text)
    mini_win_con                             0x0800314d   Thumb Code    50  gb_win.o(.text)
    mini_win_moni                            0x0800317f   Thumb Code    14  gb_win.o(.text)
    mini_win_Init                            0x0800318d   Thumb Code    20  gb_win.o(.text)
    miniwinshow                              0x080031a1   Thumb Code    26  gb_win.o(.text)
    contr_window                             0x080031bb   Thumb Code    22  gb_win.o(.text)
    get_win_Pid                              0x080031d1   Thumb Code    32  gb_win.o(.text)
    get_InitWindow                           0x080031f1   Thumb Code    22  gb_win.o(.text)
    get_app_window                           0x08003207   Thumb Code    36  gb_win.o(.text)
    getProWin                                0x0800322b   Thumb Code     6  gb_win.o(.text)
    GetPidHandle                             0x08003231   Thumb Code    22  gb_win.o(.text)
    returnWin                                0x08003247   Thumb Code    18  gb_win.o(.text)
    Window_creat                             0x08003259   Thumb Code    46  gb_win.o(.text)
    Window_quete                             0x08003287   Thumb Code    46  gb_win.o(.text)
    Window_switch                            0x080032b5   Thumb Code     2  gb_win.o(.text)
    RLGBOSInit                               0x080032d5   Thumb Code     8  gb_sysmana.o(.text)
    APPWin_create                            0x080032dd   Thumb Code    36  gb_sysmana.o(.text)
    PERAPP_GetRam                            0x08003301   Thumb Code    36  gb_mem.o(.text)
    PERAPP_GiveRam                           0x08003325   Thumb Code    22  gb_mem.o(.text)
    ProcessCreate                            0x0800333b   Thumb Code    46  gb_mem.o(.text)
    ProcessOver                              0x08003369   Thumb Code    28  gb_mem.o(.text)
    win_control_pre                          0x0800338d   Thumb Code    30  gb_home.o(.text)
    win_control_next                         0x080033ab   Thumb Code    34  gb_home.o(.text)
    wp                                       0x080033cd   Thumb Code    48  gb_home.o(.text)
    qbPWController                           0x080033fd   Thumb Code    12  gb_home.o(.text)
    window_Home_Init                         0x08003409   Thumb Code    86  gb_home.o(.text)
    IDLETask                                 0x0800345f   Thumb Code     4  gb_home.o(.text)
    control                                  0x08003463   Thumb Code    78  gb_home.o(.text)
    Home_monitor                             0x080034b1   Thumb Code    22  gb_home.o(.text)
    Home_window                              0x080034c7   Thumb Code    58  gb_home.o(.text)
    TimeTask                                 0x08003501   Thumb Code    18  gb_home.o(.text)
    ButtonTask                               0x08003513   Thumb Code    28  gb_home.o(.text)
    Homewin_Creat                            0x0800352f   Thumb Code    82  gb_home.o(.text)
    butt_dr_load                             0x080035e1   Thumb Code    30  butt_dr.o(.text)
    butt_getKey                              0x080035ff   Thumb Code    18  butt_dr.o(.text)
    butt_press                               0x08003611   Thumb Code    34  butt_dr.o(.text)
    butt_relax                               0x08003633   Thumb Code    30  butt_dr.o(.text)
    act_handle                               0x08003651   Thumb Code    44  butt_dr.o(.text)
    butt_DR_Init                             0x0800367d   Thumb Code    28  butt_dr.o(.text)
    driver_init                              0x080036a1   Thumb Code    22  driver.o(.text)
    qbPW_Fresh                               0x080036bd   Thumb Code    52  qboledpw_core.o(.text)
    qbPW_Display                             0x080036f1   Thumb Code    38  qboledpw_core.o(.text)
    qbPW_Controller                          0x08003717   Thumb Code    56  qboledpw_core.o(.text)
    qbPW_Open                                0x0800374f   Thumb Code    14  qboledpw_core.o(.text)
    malloc                                   0x0800375d   Thumb Code    94  h1_alloc.o(.text)
    free                                     0x080037bb   Thumb Code    78  h1_free.o(.text)
    srand                                    0x08003809   Thumb Code    42  rand.o(.text)
    _rand_init                               0x08003833   Thumb Code     4  rand.o(.text)
    __aeabi_memclr4                          0x08003845   Thumb Code     0  rt_memclr_w.o(.text)
    __aeabi_memclr8                          0x08003845   Thumb Code     0  rt_memclr_w.o(.text)
    __rt_memclr_w                            0x08003845   Thumb Code    78  rt_memclr_w.o(.text)
    _memset_w                                0x08003849   Thumb Code     0  rt_memclr_w.o(.text)
    __use_two_region_memory                  0x08003893   Thumb Code     2  heapauxi.o(.text)
    __rt_heap_escrow                         0x08003895   Thumb Code     2  heapauxi.o(.text)
    __rt_heap_expand                         0x08003897   Thumb Code     2  heapauxi.o(.text)
    __rt_heap_descriptor                     0x08003899   Thumb Code     8  rt_heap_descriptor_intlibspace.o(.text)
    __use_no_heap                            0x080038a1   Thumb Code     2  hguard.o(.text)
    __heap$guard                             0x080038a3   Thumb Code     2  hguard.o(.text)
    _terminate_user_alloc                    0x080038a5   Thumb Code     2  init_alloc.o(.text)
    _init_user_alloc                         0x080038a7   Thumb Code     2  init_alloc.o(.text)
    __Heap_Full                              0x080038a9   Thumb Code    34  init_alloc.o(.text)
    __Heap_Broken                            0x080038cb   Thumb Code     6  init_alloc.o(.text)
    _init_alloc                              0x080038d1   Thumb Code    94  init_alloc.o(.text)
    __Heap_Initialize                        0x0800392f   Thumb Code    10  h1_init.o(.text)
    __Heap_DescSize                          0x08003939   Thumb Code     4  h1_init.o(.text)
    __user_libspace                          0x0800393d   Thumb Code     8  libspace.o(.text)
    __user_perproc_libspace                  0x0800393d   Thumb Code     0  libspace.o(.text)
    __user_perthread_libspace                0x0800393d   Thumb Code     0  libspace.o(.text)
    __Heap_ProvideMemory                     0x08003945   Thumb Code    52  h1_extend.o(.text)
    __rt_SIGRTMEM                            0x08003979   Thumb Code    14  defsig_rtmem_outer.o(.text)
    __I$use$semihosting                      0x08003987   Thumb Code     0  use_no_semi.o(.text)
    __use_no_semihosting_swi                 0x08003987   Thumb Code     2  use_no_semi.o(.text)
    __semihosting_library_function           0x08003989   Thumb Code     0  indicate_semi.o(.text)
    __user_setup_stackheap                   0x08003989   Thumb Code    74  sys_stackheap_outer.o(.text)
    exit                                     0x080039d3   Thumb Code    12  exit.o(.text)
    __sig_exit                               0x080039df   Thumb Code    10  defsig_exit.o(.text)
    __rt_SIGRTMEM_inner                      0x080039e9   Thumb Code    22  defsig_rtmem_inner.o(.text)
    _sys_exit                                0x08003a39   Thumb Code     8  sys_exit.o(.text)
    __default_signal_display                 0x08003a45   Thumb Code    50  defsig_general.o(.text)
    _ttywrch                                 0x08003a77   Thumb Code    14  sys_wrch.o(.text)
    SystemFrequency                          0x08003a84   Data           4  system_stm32f10x.o(.constdata)
    SystemFrequency_SysClk                   0x08003a88   Data           4  system_stm32f10x.o(.constdata)
    SystemFrequency_AHBClk                   0x08003a8c   Data           4  system_stm32f10x.o(.constdata)
    SystemFrequency_APB1Clk                  0x08003a90   Data           4  system_stm32f10x.o(.constdata)
    SystemFrequency_APB2Clk                  0x08003a94   Data           4  system_stm32f10x.o(.constdata)
    LED_PIN                                  0x08003a98   Data           4  led.o(.constdata)
    LED_CLK                                  0x08003a9c   Data           8  led.o(.constdata)
    oled_asc2_1206                           0x08003aa4   Data        1140  oled.o(.constdata)
    oled_asc2_1608                           0x08003f18   Data        1520  oled.o(.constdata)
    CHINESE                                  0x08004508   Data         512  oled.o(.constdata)
    BUTTON_PIN                               0x08004708   Data           6  button.o(.constdata)
    BUTTON_CLK                               0x08004710   Data          12  button.o(.constdata)
    BUTTON_EXTI_LINE                         0x0800471c   Data           6  button.o(.constdata)
    BUTTON_PORT_SOURCE                       0x08004722   Data           6  button.o(.constdata)
    BUTTON_PIN_SOURCE                        0x08004728   Data           6  button.o(.constdata)
    BUTTON_IRQn                              0x0800472e   Data           6  button.o(.constdata)
    OSMapTbl                                 0x08004734   Data           8  os_core.o(.constdata)
    OSUnMapTbl                               0x0800473c   Data         256  os_core.o(.constdata)
    Region$$Table$$Base                      0x0800484c   Number         0  anon$$obj.o(Region$$Table)
    Region$$Table$$Limit                     0x0800486c   Number         0  anon$$obj.o(Region$$Table)
    LED_PORT                                 0x20000018   Data           8  led.o(.data)
    BUTTON_PORT                              0x20000020   Data          12  button.o(.data)
    Icon_num                                 0x2000002c   Data           1  oled_window.o(.data)
    Select_Point_num                         0x2000002d   Data           1  oled_window.o(.data)
    Power_n                                  0x2000002e   Data           1  oled_window.o(.data)
    OSCtxSwCtr                               0x20000030   Data           4  os_core.o(.data)
    OSCPUUsage                               0x20000034   Data           1  os_core.o(.data)
    OSIdleCtrMax                             0x20000038   Data           4  os_core.o(.data)
    OSIdleCtrRun                             0x2000003c   Data           4  os_core.o(.data)
    OSStatRdy                                0x20000040   Data           1  os_core.o(.data)
    OSIntNesting                             0x20000041   Data           1  os_core.o(.data)
    OSIntExitY                               0x20000042   Data           1  os_core.o(.data)
    OSLockNesting                            0x20000043   Data           1  os_core.o(.data)
    OSPrioCur                                0x20000044   Data           1  os_core.o(.data)
    OSPrioHighRdy                            0x20000045   Data           1  os_core.o(.data)
    OSRdyGrp                                 0x20000046   Data           1  os_core.o(.data)
    OSRdyTbl                                 0x20000047   Data           2  os_core.o(.data)
    OSRunning                                0x20000049   Data           1  os_core.o(.data)
    OSTaskCtr                                0x2000004a   Data           1  os_core.o(.data)
    OSIdleCtr                                0x2000004c   Data           4  os_core.o(.data)
    OSTCBCur                                 0x20000050   Data           4  os_core.o(.data)
    OSTCBFreeList                            0x20000054   Data           4  os_core.o(.data)
    OSTCBHighRdy                             0x20000058   Data           4  os_core.o(.data)
    OSTCBList                                0x2000005c   Data           4  os_core.o(.data)
    OSTime                                   0x20000060   Data           4  os_core.o(.data)
    OSInterrputSum                           0x20000064   Data           4  os_cpu_c.o(.data)
    messageList                              0x20000068   Data           1  gb_mes.o(.data)
    sysTime                                  0x20000069   Data           3  gb_systim.o(.data)
    TimeStr                                  0x2000006c   Data          10  gb_systim.o(.data)
    proWindow                                0x20000078   Data           4  gb_win.o(.data)
    pidList                                  0x2000007c   Data           3  gb_win.o(.data)
    HomePid                                  0x2000007f   Data           1  gb_win.o(.data)
    PERAPPRam_List                           0x20000080   Data           2  gb_mem.o(.data)
    Hook                                     0x20000084   Data           8  gb_home.o(.data)
    page1                                    0x2000008c   Data          12  gb_home.o(.data)
    page2                                    0x20000098   Data          12  gb_home.o(.data)
    pages                                    0x200000a4   Data           8  gb_home.o(.data)
    win1                                     0x200000ac   Data          16  gb_home.o(.data)
    butt_Key                                 0x200000bc   Data           3  butt_dr.o(.data)
    OLED_GRAM                                0x200000c0   Data        1024  oled.o(.bss)
    Icon_table                               0x200004c0   Data         192  oled_window.o(.bss)
    OSTaskStatStk                            0x20000580   Data        2048  os_core.o(.bss)
    OSTaskIdleStk                            0x20000d80   Data        2048  os_core.o(.bss)
    OSTCBPrioTbl                             0x20001580   Data          52  os_core.o(.bss)
    OSTCBTbl                                 0x200015b4   Data         520  os_core.o(.bss)
    winPList                                 0x200017bc   Data          48  gb_win.o(.bss)
    notice_win                               0x200017ec   Data          16  gb_win.o(.bss)
    PERAPP_RAM                               0x200017fc   Data         512  gb_mem.o(.bss)
    SYSAPP_RAM                               0x200019fc   Data        1024  gb_home.o(.bss)
    OS_IDLE                                  0x20001dfc   Data          20  gb_home.o(.bss)
    butt_dr                                  0x20001e10   Data          12  butt_dr.o(.bss)
    Diver_list                               0x20001e1c   Data          12  driver.o(.bss)
    _random_number_data                      0x20001e28   Data         228  rand.o(.bss)
    __libspace_start                         0x20001f0c   Data          96  libspace.o(.bss)
    __temporary_stack_top$libspace           0x20001f6c   Data           0  libspace.o(.bss)



==============================================================================

Memory Map of the image

  Image Entry point : 0x08000131

  Load Region LR_IROM1 (Base: 0x08000000, Size: 0x0000492c, Max: 0x00040000, ABSOLUTE)

    Execution Region ER_IROM1 (Base: 0x08000000, Size: 0x0000486c, Max: 0x00040000, ABSOLUTE)

    Base Addr    Size         Type   Attr      Idx    E Section Name        Object

    0x08000000   0x00000130   Data   RO            3    RESET               startup_stm32f10x_hd.o
    0x08000130   0x00000008   Code   RO         1017  * !!!main             c_w.l(__main.o)
    0x08000138   0x00000034   Code   RO         1219    !!!scatter          c_w.l(__scatter.o)
    0x0800016c   0x0000001a   Code   RO         1221    !!handler_copy      c_w.l(__scatter_copy.o)
    0x08000186   0x00000002   PAD
    0x08000188   0x0000001c   Code   RO         1223    !!handler_zi        c_w.l(__scatter_zi.o)
    0x080001a4   0x00000002   Code   RO         1159    .ARM.Collect$$libinit$$00000000  c_w.l(libinit.o)
    0x080001a6   0x00000000   Code   RO         1052    .ARM.Collect$$libinit$$00000002  c_w.l(libinit2.o)
    0x080001a6   0x00000000   Code   RO         1054    .ARM.Collect$$libinit$$00000004  c_w.l(libinit2.o)
    0x080001a6   0x00000008   Code   RO         1055    .ARM.Collect$$libinit$$00000005  c_w.l(libinit2.o)
    0x080001ae   0x00000000   Code   RO         1057    .ARM.Collect$$libinit$$0000000A  c_w.l(libinit2.o)
    0x080001ae   0x00000000   Code   RO         1059    .ARM.Collect$$libinit$$0000000C  c_w.l(libinit2.o)
    0x080001ae   0x00000004   Code   RO         1060    .ARM.Collect$$libinit$$0000000D  c_w.l(libinit2.o)
    0x080001b2   0x00000000   Code   RO         1061    .ARM.Collect$$libinit$$0000000E  c_w.l(libinit2.o)
    0x080001b2   0x00000000   Code   RO         1064    .ARM.Collect$$libinit$$00000011  c_w.l(libinit2.o)
    0x080001b2   0x00000000   Code   RO         1066    .ARM.Collect$$libinit$$00000013  c_w.l(libinit2.o)
    0x080001b2   0x00000000   Code   RO         1068    .ARM.Collect$$libinit$$00000015  c_w.l(libinit2.o)
    0x080001b2   0x00000000   Code   RO         1070    .ARM.Collect$$libinit$$00000017  c_w.l(libinit2.o)
    0x080001b2   0x00000000   Code   RO         1072    .ARM.Collect$$libinit$$00000019  c_w.l(libinit2.o)
    0x080001b2   0x00000000   Code   RO         1074    .ARM.Collect$$libinit$$0000001B  c_w.l(libinit2.o)
    0x080001b2   0x00000000   Code   RO         1076    .ARM.Collect$$libinit$$0000001D  c_w.l(libinit2.o)
    0x080001b2   0x00000000   Code   RO         1078    .ARM.Collect$$libinit$$0000001F  c_w.l(libinit2.o)
    0x080001b2   0x00000000   Code   RO         1080    .ARM.Collect$$libinit$$00000021  c_w.l(libinit2.o)
    0x080001b2   0x00000000   Code   RO         1082    .ARM.Collect$$libinit$$00000023  c_w.l(libinit2.o)
    0x080001b2   0x00000000   Code   RO         1084    .ARM.Collect$$libinit$$00000025  c_w.l(libinit2.o)
    0x080001b2   0x00000000   Code   RO         1088    .ARM.Collect$$libinit$$0000002C  c_w.l(libinit2.o)
    0x080001b2   0x00000000   Code   RO         1090    .ARM.Collect$$libinit$$0000002E  c_w.l(libinit2.o)
    0x080001b2   0x00000000   Code   RO         1092    .ARM.Collect$$libinit$$00000030  c_w.l(libinit2.o)
    0x080001b2   0x00000000   Code   RO         1094    .ARM.Collect$$libinit$$00000032  c_w.l(libinit2.o)
    0x080001b2   0x00000002   Code   RO         1095    .ARM.Collect$$libinit$$00000033  c_w.l(libinit2.o)
    0x080001b4   0x00000002   Code   RO         1216    .ARM.Collect$$libshutdown$$00000000  c_w.l(libshutdown.o)
    0x080001b6   0x00000000   Code   RO         1174    .ARM.Collect$$libshutdown$$00000003  c_w.l(libshutdown2.o)
    0x080001b6   0x00000000   Code   RO         1177    .ARM.Collect$$libshutdown$$00000006  c_w.l(libshutdown2.o)
    0x080001b6   0x00000000   Code   RO         1180    .ARM.Collect$$libshutdown$$00000009  c_w.l(libshutdown2.o)
    0x080001b6   0x00000000   Code   RO         1182    .ARM.Collect$$libshutdown$$0000000B  c_w.l(libshutdown2.o)
    0x080001b6   0x00000000   Code   RO         1185    .ARM.Collect$$libshutdown$$0000000E  c_w.l(libshutdown2.o)
    0x080001b6   0x00000002   Code   RO         1186    .ARM.Collect$$libshutdown$$0000000F  c_w.l(libshutdown2.o)
    0x080001b8   0x00000000   Code   RO         1021    .ARM.Collect$$rtentry$$00000000  c_w.l(__rtentry.o)
    0x080001b8   0x00000000   Code   RO         1102    .ARM.Collect$$rtentry$$00000002  c_w.l(__rtentry2.o)
    0x080001b8   0x00000006   Code   RO         1114    .ARM.Collect$$rtentry$$00000004  c_w.l(__rtentry4.o)
    0x080001be   0x00000000   Code   RO         1104    .ARM.Collect$$rtentry$$00000009  c_w.l(__rtentry2.o)
    0x080001be   0x00000004   Code   RO         1105    .ARM.Collect$$rtentry$$0000000A  c_w.l(__rtentry2.o)
    0x080001c2   0x00000000   Code   RO         1107    .ARM.Collect$$rtentry$$0000000C  c_w.l(__rtentry2.o)
    0x080001c2   0x00000008   Code   RO         1108    .ARM.Collect$$rtentry$$0000000D  c_w.l(__rtentry2.o)
    0x080001ca   0x00000002   Code   RO         1162    .ARM.Collect$$rtexit$$00000000  c_w.l(rtexit.o)
    0x080001cc   0x00000000   Code   RO         1190    .ARM.Collect$$rtexit$$00000002  c_w.l(rtexit2.o)
    0x080001cc   0x00000004   Code   RO         1191    .ARM.Collect$$rtexit$$00000003  c_w.l(rtexit2.o)
    0x080001d0   0x00000006   Code   RO         1192    .ARM.Collect$$rtexit$$00000004  c_w.l(rtexit2.o)
    0x080001d6   0x00000002   PAD
    0x080001d8   0x00000034   Code   RO         1008    .emb_text           c_w.l(rand.o)
    0x0800020c   0x00000000   Code   RO         1118    .emb_text           c_w.l(maybetermalloc1.o)
    0x0800020c   0x00000040   Code   RO            4    .text               startup_stm32f10x_hd.o
    0x0800024c   0x00000040   Code   RO           10    .text               main.o
    0x0800028c   0x00000138   Code   RO          171    .text               system_stm32f10x.o
    0x080003c4   0x000000c4   Code   RO          207    .text               systickdelay.o
    0x08000488   0x000000dc   Code   RO          224    .text               misc.o
    0x08000564   0x0000011c   Code   RO          320    .text               stm32f10x_exti.o
    0x08000680   0x00000338   Code   RO          359    .text               stm32f10x_gpio.o
    0x080009b8   0x000003a4   Code   RO          407    .text               stm32f10x_rcc.o
    0x08000d5c   0x0000030c   Code   RO          448    .text               stm32f10x_spi.o
    0x08001068   0x0000007c   Code   RO          496    .text               led.o
    0x080010e4   0x00000544   Code   RO          515    .text               oled.o
    0x08001628   0x000001c8   Code   RO          543    .text               spi.o
    0x080017f0   0x000000e0   Code   RO          555    .text               button.o
    0x080018d0   0x00000078   Code   RO          574    .text               psb_init.o
    0x08001948   0x00000308   Code   RO          593    .text               oled_window.o
    0x08001c50   0x0000098c   Code   RO          618    .text               flybird.o
    0x080025dc   0x000004d4   Code   RO          651    .text               os_core.o
    0x08002ab0   0x00000258   Code   RO          671    .text               os_task.o
    0x08002d08   0x00000124   Code   RO          683    .text               os_time.o
    0x08002e2c   0x000000dc   Code   RO          695    .text               os_cpu_a.o
    0x08002f08   0x000000b2   Code   RO          698    .text               os_cpu_c.o
    0x08002fba   0x00000002   PAD
    0x08002fbc   0x00000030   Code   RO          742    .text               gb_mes.o
    0x08002fec   0x00000028   Code   RO          761    .text               gb_moni.o
    0x08003014   0x000000ec   Code   RO          773    .text               gb_systim.o
    0x08003100   0x000001d4   Code   RO          800    .text               gb_win.o
    0x080032d4   0x0000002c   Code   RO          830    .text               gb_sysmana.o
    0x08003300   0x0000008c   Code   RO          842    .text               gb_mem.o
    0x0800338c   0x00000254   Code   RO          859    .text               gb_home.o
    0x080035e0   0x000000c0   Code   RO          898    .text               butt_dr.o
    0x080036a0   0x0000001c   Code   RO          914    .text               driver.o
    0x080036bc   0x000000a0   Code   RO          932    .text               qboledpw_core.o
    0x0800375c   0x0000005e   Code   RO          950    .text               c_w.l(h1_alloc.o)
    0x080037ba   0x0000004e   Code   RO          952    .text               c_w.l(h1_free.o)
    0x08003808   0x0000003c   Code   RO         1009    .text               c_w.l(rand.o)
    0x08003844   0x0000004e   Code   RO         1013    .text               c_w.l(rt_memclr_w.o)
    0x08003892   0x00000006   Code   RO         1015    .text               c_w.l(heapauxi.o)
    0x08003898   0x00000008   Code   RO         1025    .text               c_w.l(rt_heap_descriptor_intlibspace.o)
    0x080038a0   0x00000004   Code   RO         1027    .text               c_w.l(hguard.o)
    0x080038a4   0x0000008a   Code   RO         1029    .text               c_w.l(init_alloc.o)
    0x0800392e   0x0000000e   Code   RO         1033    .text               c_w.l(h1_init.o)
    0x0800393c   0x00000008   Code   RO         1098    .text               c_w.l(libspace.o)
    0x08003944   0x00000034   Code   RO         1120    .text               c_w.l(h1_extend.o)
    0x08003978   0x0000000e   Code   RO         1124    .text               c_w.l(defsig_rtmem_outer.o)
    0x08003986   0x00000002   Code   RO         1135    .text               c_w.l(use_no_semi.o)
    0x08003988   0x00000000   Code   RO         1137    .text               c_w.l(indicate_semi.o)
    0x08003988   0x0000004a   Code   RO         1138    .text               c_w.l(sys_stackheap_outer.o)
    0x080039d2   0x0000000c   Code   RO         1144    .text               c_w.l(exit.o)
    0x080039de   0x0000000a   Code   RO         1146    .text               c_w.l(defsig_exit.o)
    0x080039e8   0x00000050   Code   RO         1148    .text               c_w.l(defsig_rtmem_inner.o)
    0x08003a38   0x0000000c   Code   RO         1160    .text               c_w.l(sys_exit.o)
    0x08003a44   0x00000032   Code   RO         1170    .text               c_w.l(defsig_general.o)
    0x08003a76   0x0000000e   Code   RO         1187    .text               c_w.l(sys_wrch.o)
    0x08003a84   0x00000014   Data   RO          172    .constdata          system_stm32f10x.o
    0x08003a98   0x0000000c   Data   RO          497    .constdata          led.o
    0x08003aa4   0x00000c64   Data   RO          517    .constdata          oled.o
    0x08004708   0x0000002c   Data   RO          556    .constdata          button.o
    0x08004734   0x00000108   Data   RO          653    .constdata          os_core.o
    0x0800483c   0x0000000e   Data   RO          861    .conststring        gb_home.o
    0x0800484a   0x00000002   PAD
    0x0800484c   0x00000020   Data   RO         1217    Region$$Table       anon$$obj.o


    Execution Region RW_IRAM1 (Base: 0x20000000, Size: 0x00002570, Max: 0x0000c000, ABSOLUTE)

    Base Addr    Size         Type   Attr      Idx    E Section Name        Object

    0x20000000   0x00000004   Data   RW          208    .data               systickdelay.o
    0x20000004   0x00000014   Data   RW          408    .data               stm32f10x_rcc.o
    0x20000018   0x00000008   Data   RW          498    .data               led.o
    0x20000020   0x0000000c   Data   RW          557    .data               button.o
    0x2000002c   0x00000003   Data   RW          595    .data               oled_window.o
    0x2000002f   0x00000001   PAD
    0x20000030   0x00000034   Data   RW          654    .data               os_core.o
    0x20000064   0x00000004   Data   RW          699    .data               os_cpu_c.o
    0x20000068   0x00000001   Data   RW          743    .data               gb_mes.o
    0x20000069   0x0000000d   Data   RW          774    .data               gb_systim.o
    0x20000076   0x00000002   PAD
    0x20000078   0x00000008   Data   RW          802    .data               gb_win.o
    0x20000080   0x00000002   Data   RW          845    .data               gb_mem.o
    0x20000082   0x00000002   PAD
    0x20000084   0x00000038   Data   RW          862    .data               gb_home.o
    0x200000bc   0x00000003   Data   RW          900    .data               butt_dr.o
    0x200000bf   0x00000001   PAD
    0x200000c0   0x00000400   Zero   RW          516    .bss                oled.o
    0x200004c0   0x000000c0   Zero   RW          594    .bss                oled_window.o
    0x20000580   0x0000123c   Zero   RW          652    .bss                os_core.o
    0x200017bc   0x00000040   Zero   RW          801    .bss                gb_win.o
    0x200017fc   0x00000200   Zero   RW          843    .bss                gb_mem.o
    0x200019fc   0x00000414   Zero   RW          860    .bss                gb_home.o
    0x20001e10   0x0000000c   Zero   RW          899    .bss                butt_dr.o
    0x20001e1c   0x0000000c   Zero   RW          915    .bss                driver.o
    0x20001e28   0x000000e4   Zero   RW         1010    .bss                c_w.l(rand.o)
    0x20001f0c   0x00000060   Zero   RW         1099    .bss                c_w.l(libspace.o)
    0x20001f6c   0x00000004   PAD
    0x20001f70   0x00000200   Zero   RW            2    HEAP                startup_stm32f10x_hd.o
    0x20002170   0x00000400   Zero   RW            1    STACK               startup_stm32f10x_hd.o


==============================================================================

Image component sizes


      Code (inc. data)   RO Data    RW Data    ZI Data      Debug   Object Name

       192          8          0          3         12       1868   butt_dr.o
       224         28         44         12          0       2668   button.o
        28          6          0          0         12       1059   driver.o
      2444          6          0          0          0       6632   flybird.o
       596         96         14         56       1044       3765   gb_home.o
       140          8          0          2        512       1734   gb_mem.o
        48          6          0          1          0       1509   gb_mes.o
        40          4          0          0          0        476   gb_moni.o
        44          0          0          0          0        859   gb_sysmana.o
       236         14          0         13          0       1647   gb_systim.o
       468         30          0          8         64       5459   gb_win.o
       124         14         12          8          0       1828   led.o
        64          4          0          0          0     236077   main.o
       220         20          0          0          0       1601   misc.o
      1348         30       3172          0       1024       5336   oled.o
       776         16          0          3        192       4537   oled_window.o
      1236        126        264         52       4668       6870   os_core.o
       220         42          0          0          0        268   os_cpu_a.o
       178          0          0          4          0       5659   os_cpu_c.o
       600         42          0          0          0       2153   os_task.o
       292         16          0          0          0       1266   os_time.o
       120          0          0          0          0        857   psb_init.o
       160          0          0          0          0       1308   qboledpw_core.o
       456         16          0          0          0       1436   spi.o
        64         26        304          0       1536        732   startup_stm32f10x_hd.o
       284         10          0          0          0       2039   stm32f10x_exti.o
       824         40          0          0          0       5345   stm32f10x_gpio.o
       932         44          0         20          0       8536   stm32f10x_rcc.o
       780         14          0          0          0       6310   stm32f10x_spi.o
       312         16         20          0          0       1597   system_stm32f10x.o
       196         18          0          4          0        921   systickdelay.o

    ----------------------------------------------------------------------
     13648        700       3864        192       9064     322352   Object Totals
         0          0         32          0          0          0   (incl. Generated)
         2          0          2          6          0          0   (incl. Padding)

    ----------------------------------------------------------------------

      Code (inc. data)   RO Data    RW Data    ZI Data      Debug   Library Member Name

         8          0          0          0          0         68   __main.o
         0          0          0          0          0          0   __rtentry.o
        12          0          0          0          0          0   __rtentry2.o
         6          0          0          0          0          0   __rtentry4.o
        52          8          0          0          0          0   __scatter.o
        26          0          0          0          0          0   __scatter_copy.o
        28          0          0          0          0          0   __scatter_zi.o
        10          0          0          0          0         68   defsig_exit.o
        50          0          0          0          0         88   defsig_general.o
        80         58          0          0          0         76   defsig_rtmem_inner.o
        14          0          0          0          0         80   defsig_rtmem_outer.o
        12          0          0          0          0         72   exit.o
        94          0          0          0          0         80   h1_alloc.o
        52          0          0          0          0         68   h1_extend.o
        78          0          0          0          0         80   h1_free.o
        14          0          0          0          0         84   h1_init.o
         6          0          0          0          0        152   heapauxi.o
         4          0          0          0          0        136   hguard.o
         0          0          0          0          0          0   indicate_semi.o
       138          0          0          0          0        168   init_alloc.o
         2          0          0          0          0          0   libinit.o
        14          0          0          0          0          0   libinit2.o
         2          0          0          0          0          0   libshutdown.o
         2          0          0          0          0          0   libshutdown2.o
         8          4          0          0         96         68   libspace.o
         0          0          0          0          0          0   maybetermalloc1.o
       112         18          0          0        228        160   rand.o
         8          4          0          0          0         68   rt_heap_descriptor_intlibspace.o
        78          0          0          0          0         80   rt_memclr_w.o
         2          0          0          0          0          0   rtexit.o
        10          0          0          0          0          0   rtexit2.o
        12          4          0          0          0         68   sys_exit.o
        74          0          0          0          0         80   sys_stackheap_outer.o
        14          0          0          0          0         76   sys_wrch.o
         2          0          0          0          0         68   use_no_semi.o

    ----------------------------------------------------------------------
      1028         96          0          0        328       1888   Library Totals
         4          0          0          0          4          0   (incl. Padding)

    ----------------------------------------------------------------------

      Code (inc. data)   RO Data    RW Data    ZI Data      Debug   Library Name

      1024         96          0          0        324       1888   c_w.l

    ----------------------------------------------------------------------
      1028         96          0          0        328       1888   Library Totals

    ----------------------------------------------------------------------

==============================================================================


      Code (inc. data)   RO Data    RW Data    ZI Data      Debug   

     14676        796       3864        192       9392     320496   Grand Totals
     14676        796       3864        192       9392     320496   ELF Image Totals
     14676        796       3864        192          0          0   ROM Totals

==============================================================================

    Total RO  Size (Code + RO Data)                18540 (  18.11kB)
    Total RW  Size (RW Data + ZI Data)              9584 (   9.36kB)
    Total ROM Size (Code + RO Data + RW Data)      18732 (  18.29kB)

==============================================================================

